{
  "_format": "hh-sol-artifact-1",
  "contractName": "MyEpicNFT",
  "sourceName": "contracts/MyEpicNFT.sol",
  "abi": [
    {
      "inputs": [],
      "stateMutability": "nonpayable",
      "type": "constructor"
    },
    {
      "anonymous": false,
      "inputs": [
        {
          "indexed": true,
          "internalType": "address",
          "name": "owner",
          "type": "address"
        },
        {
          "indexed": true,
          "internalType": "address",
          "name": "approved",
          "type": "address"
        },
        {
          "indexed": true,
          "internalType": "uint256",
          "name": "tokenId",
          "type": "uint256"
        }
      ],
      "name": "Approval",
      "type": "event"
    },
    {
      "anonymous": false,
      "inputs": [
        {
          "indexed": true,
          "internalType": "address",
          "name": "owner",
          "type": "address"
        },
        {
          "indexed": true,
          "internalType": "address",
          "name": "operator",
          "type": "address"
        },
        {
          "indexed": false,
          "internalType": "bool",
          "name": "approved",
          "type": "bool"
        }
      ],
      "name": "ApprovalForAll",
      "type": "event"
    },
    {
      "anonymous": false,
      "inputs": [
        {
          "indexed": false,
          "internalType": "address",
          "name": "sender",
          "type": "address"
        },
        {
          "indexed": false,
          "internalType": "uint256",
          "name": "tokenId",
          "type": "uint256"
        }
      ],
      "name": "NewEpicNFTMinted",
      "type": "event"
    },
    {
      "anonymous": false,
      "inputs": [
        {
          "indexed": true,
          "internalType": "address",
          "name": "from",
          "type": "address"
        },
        {
          "indexed": true,
          "internalType": "address",
          "name": "to",
          "type": "address"
        },
        {
          "indexed": true,
          "internalType": "uint256",
          "name": "tokenId",
          "type": "uint256"
        }
      ],
      "name": "Transfer",
      "type": "event"
    },
    {
      "inputs": [
        {
          "internalType": "address",
          "name": "to",
          "type": "address"
        },
        {
          "internalType": "uint256",
          "name": "tokenId",
          "type": "uint256"
        }
      ],
      "name": "approve",
      "outputs": [],
      "stateMutability": "nonpayable",
      "type": "function"
    },
    {
      "inputs": [
        {
          "internalType": "address",
          "name": "owner",
          "type": "address"
        }
      ],
      "name": "balanceOf",
      "outputs": [
        {
          "internalType": "uint256",
          "name": "",
          "type": "uint256"
        }
      ],
      "stateMutability": "view",
      "type": "function"
    },
    {
      "inputs": [
        {
          "internalType": "uint256",
          "name": "tokenId",
          "type": "uint256"
        }
      ],
      "name": "getApproved",
      "outputs": [
        {
          "internalType": "address",
          "name": "",
          "type": "address"
        }
      ],
      "stateMutability": "view",
      "type": "function"
    },
    {
      "inputs": [
        {
          "internalType": "address",
          "name": "owner",
          "type": "address"
        },
        {
          "internalType": "address",
          "name": "operator",
          "type": "address"
        }
      ],
      "name": "isApprovedForAll",
      "outputs": [
        {
          "internalType": "bool",
          "name": "",
          "type": "bool"
        }
      ],
      "stateMutability": "view",
      "type": "function"
    },
    {
      "inputs": [],
      "name": "makeAnEpicNFT",
      "outputs": [],
      "stateMutability": "nonpayable",
      "type": "function"
    },
    {
      "inputs": [],
      "name": "n_minted",
      "outputs": [
        {
          "internalType": "uint256",
          "name": "",
          "type": "uint256"
        }
      ],
      "stateMutability": "view",
      "type": "function"
    },
    {
      "inputs": [],
      "name": "n_mintmax",
      "outputs": [
        {
          "internalType": "uint8",
          "name": "",
          "type": "uint8"
        }
      ],
      "stateMutability": "view",
      "type": "function"
    },
    {
      "inputs": [],
      "name": "name",
      "outputs": [
        {
          "internalType": "string",
          "name": "",
          "type": "string"
        }
      ],
      "stateMutability": "view",
      "type": "function"
    },
    {
      "inputs": [
        {
          "internalType": "uint256",
          "name": "tokenId",
          "type": "uint256"
        }
      ],
      "name": "ownerOf",
      "outputs": [
        {
          "internalType": "address",
          "name": "",
          "type": "address"
        }
      ],
      "stateMutability": "view",
      "type": "function"
    },
    {
      "inputs": [
        {
          "internalType": "uint256",
          "name": "tokenId",
          "type": "uint256"
        }
      ],
      "name": "pickRandomFirstWord",
      "outputs": [
        {
          "internalType": "string",
          "name": "",
          "type": "string"
        }
      ],
      "stateMutability": "view",
      "type": "function"
    },
    {
      "inputs": [
        {
          "internalType": "uint256",
          "name": "tokenId",
          "type": "uint256"
        }
      ],
      "name": "pickRandomSecondWord",
      "outputs": [
        {
          "internalType": "string",
          "name": "",
          "type": "string"
        }
      ],
      "stateMutability": "view",
      "type": "function"
    },
    {
      "inputs": [
        {
          "internalType": "uint256",
          "name": "tokenId",
          "type": "uint256"
        }
      ],
      "name": "pickRandomThirdWord",
      "outputs": [
        {
          "internalType": "string",
          "name": "",
          "type": "string"
        }
      ],
      "stateMutability": "view",
      "type": "function"
    },
    {
      "inputs": [
        {
          "internalType": "address",
          "name": "from",
          "type": "address"
        },
        {
          "internalType": "address",
          "name": "to",
          "type": "address"
        },
        {
          "internalType": "uint256",
          "name": "tokenId",
          "type": "uint256"
        }
      ],
      "name": "safeTransferFrom",
      "outputs": [],
      "stateMutability": "nonpayable",
      "type": "function"
    },
    {
      "inputs": [
        {
          "internalType": "address",
          "name": "from",
          "type": "address"
        },
        {
          "internalType": "address",
          "name": "to",
          "type": "address"
        },
        {
          "internalType": "uint256",
          "name": "tokenId",
          "type": "uint256"
        },
        {
          "internalType": "bytes",
          "name": "_data",
          "type": "bytes"
        }
      ],
      "name": "safeTransferFrom",
      "outputs": [],
      "stateMutability": "nonpayable",
      "type": "function"
    },
    {
      "inputs": [
        {
          "internalType": "address",
          "name": "operator",
          "type": "address"
        },
        {
          "internalType": "bool",
          "name": "approved",
          "type": "bool"
        }
      ],
      "name": "setApprovalForAll",
      "outputs": [],
      "stateMutability": "nonpayable",
      "type": "function"
    },
    {
      "inputs": [
        {
          "internalType": "bytes4",
          "name": "interfaceId",
          "type": "bytes4"
        }
      ],
      "name": "supportsInterface",
      "outputs": [
        {
          "internalType": "bool",
          "name": "",
          "type": "bool"
        }
      ],
      "stateMutability": "view",
      "type": "function"
    },
    {
      "inputs": [],
      "name": "symbol",
      "outputs": [
        {
          "internalType": "string",
          "name": "",
          "type": "string"
        }
      ],
      "stateMutability": "view",
      "type": "function"
    },
    {
      "inputs": [
        {
          "internalType": "uint256",
          "name": "tokenId",
          "type": "uint256"
        }
      ],
      "name": "tokenURI",
      "outputs": [
        {
          "internalType": "string",
          "name": "",
          "type": "string"
        }
      ],
      "stateMutability": "view",
      "type": "function"
    },
    {
      "inputs": [
        {
          "internalType": "address",
          "name": "from",
          "type": "address"
        },
        {
          "internalType": "address",
          "name": "to",
          "type": "address"
        },
        {
          "internalType": "uint256",
          "name": "tokenId",
          "type": "uint256"
        }
      ],
      "name": "transferFrom",
      "outputs": [],
      "stateMutability": "nonpayable",
      "type": "function"
    }
  ],
  "bytecode": "0x60806040526005600860006101000a81548160ff021916908360ff16021790555060405180610160016040528061012f81526020016200467861012f913960099080519060200190620000549291906200069a565b506040518060c001604052806040518060400160405280600381526020017f6d793a000000000000000000000000000000000000000000000000000000000081525081526020016040518060400160405280600481526020017f6f75723a0000000000000000000000000000000000000000000000000000000081525081526020016040518060400160405280600581526020017f6d6973733e00000000000000000000000000000000000000000000000000000081525081526020016040518060400160405280600381526020017f6d723f000000000000000000000000000000000000000000000000000000000081525081526020016040518060400160405280600481526020017f6d7473400000000000000000000000000000000000000000000000000000000081525081526020016040518060400160405280600681526020017f63727970743a0000000000000000000000000000000000000000000000000000815250815250600a906006620001d29291906200072b565b506040518060c001604052806040518060400160405280600981526020017f4661766f7269746521000000000000000000000000000000000000000000000081525081526020016040518060400160405280600881526020017f4469736c696b652300000000000000000000000000000000000000000000000081525081526020016040518060400160405280600681526020017f537765657424000000000000000000000000000000000000000000000000000081525081526020016040518060400160405280600681526020017f486561767925000000000000000000000000000000000000000000000000000081525081526020016040518060400160405280600781526020017f536f66746c793b0000000000000000000000000000000000000000000000000081525081526020016040518060400160405280600681526020017f4d656c7479260000000000000000000000000000000000000000000000000000815250815250600b906006620003509291906200072b565b506040518060c001604052806040518060400160405280600581526020017f5261696e2b00000000000000000000000000000000000000000000000000000081525081526020016040518060400160405280600581526020017f2b7878782b00000000000000000000000000000000000000000000000000000081525081526020016040518060400160405280600681526020017f2a576f6f642a000000000000000000000000000000000000000000000000000081525081526020016040518060400160405280600581526020017f2b2b2b2a2a00000000000000000000000000000000000000000000000000000081525081526020016040518060400160405280600a81526020017f2d2d3d3d2d2d4e6f756e0000000000000000000000000000000000000000000081525081526020016040518060400160405280600981526020017f53616d657468696e670000000000000000000000000000000000000000000000815250815250600c906006620004ce9291906200072b565b50348015620004dc57600080fd5b506040518060400160405280600981526020017f5371756172654e465400000000000000000000000000000000000000000000008152506040518060400160405280600681526020017f53515541524500000000000000000000000000000000000000000000000000008152508160009080519060200190620005619291906200069a565b5080600190805190602001906200057a9291906200069a565b505050620005c86040518060400160405280601881526020017f54686973206973206d79204e465420636f6e74726163742e0000000000000000815250620005ce60201b6200128f1760201c565b6200094c565b6200066e81604051602401620005e5919062000860565b6040516020818303038152906040527f41304fac000000000000000000000000000000000000000000000000000000007bffffffffffffffffffffffffffffffffffffffffffffffffffffffff19166020820180517bffffffffffffffffffffffffffffffffffffffffffffffffffffffff83818316178352505050506200067160201b60201c565b50565b60008151905060006a636f6e736f6c652e6c6f679050602083016000808483855afa5050505050565b828054620006a890620008d6565b90600052602060002090601f016020900481019282620006cc576000855562000718565b82601f10620006e757805160ff191683800117855562000718565b8280016001018555821562000718579182015b8281111562000717578251825591602001919060010190620006fa565b5b50905062000727919062000792565b5090565b8280548282559060005260206000209081019282156200077f579160200282015b828111156200077e5782518290805190602001906200076d9291906200069a565b50916020019190600101906200074c565b5b5090506200078e9190620007b1565b5090565b5b80821115620007ad57600081600090555060010162000793565b5090565b5b80821115620007d55760008181620007cb9190620007d9565b50600101620007b2565b5090565b508054620007e790620008d6565b6000825580601f10620007fb57506200081c565b601f0160209004906000526020600020908101906200081b919062000792565b5b50565b60006200082c8262000884565b6200083881856200088f565b93506200084a818560208601620008a0565b62000855816200093b565b840191505092915050565b600060208201905081810360008301526200087c81846200081f565b905092915050565b600081519050919050565b600082825260208201905092915050565b60005b83811015620008c0578082015181840152602081019050620008a3565b83811115620008d0576000848401525b50505050565b60006002820490506001821680620008ef57607f821691505b602082108114156200090657620009056200090c565b5b50919050565b7f4e487b7100000000000000000000000000000000000000000000000000000000600052602260045260246000fd5b6000601f19601f8301169050919050565b613d1c806200095c6000396000f3fe608060405234801561001057600080fd5b50600436106101215760003560e01c80636352211e116100ad578063b88d4fde11610071578063b88d4fde1461032e578063c575757a1461034a578063c87b56dd1461037a578063de9d132f146103aa578063e985e9c5146103b457610121565b80636352211e1461026457806370a082311461029457806395d89b41146102c4578063a22cb465146102e2578063b187301f146102fe57610121565b8063095ea7b3116100f4578063095ea7b3146101c257806323b872dd146101de5780632de38d68146101fa57806342842e0e1461022a57806354e8d3661461024657610121565b806301ffc9a71461012657806306fdde0314610156578063081812fc14610174578063084171dd146101a4575b600080fd5b610140600480360381019061013b9190612757565b6103e4565b60405161014d9190612e93565b60405180910390f35b61015e6104c6565b60405161016b9190612eae565b60405180910390f35b61018e600480360381019061018991906127a9565b610558565b60405161019b9190612e03565b60405180910390f35b6101ac6105dd565b6040516101b9919061315e565b60405180910390f35b6101dc60048036038101906101d7919061271b565b6105ee565b005b6101f860048036038101906101f39190612615565b610706565b005b610214600480360381019061020f91906127a9565b610766565b6040516102219190612eae565b60405180910390f35b610244600480360381019061023f9190612615565b610902565b005b61024e610922565b60405161025b9190613179565b60405180910390f35b61027e600480360381019061027991906127a9565b610939565b60405161028b9190612e03565b60405180910390f35b6102ae60048036038101906102a991906125b0565b6109eb565b6040516102bb919061315e565b60405180910390f35b6102cc610aa3565b6040516102d99190612eae565b60405180910390f35b6102fc60048036038101906102f791906126df565b610b35565b005b610318600480360381019061031391906127a9565b610b4b565b6040516103259190612eae565b60405180910390f35b61034860048036038101906103439190612664565b610c69565b005b610364600480360381019061035f91906127a9565b610ccb565b6040516103719190612eae565b60405180910390f35b610394600480360381019061038f91906127a9565b610de9565b6040516103a19190612eae565b60405180910390f35b6103b2610f3b565b005b6103ce60048036038101906103c991906125d9565b6111fb565b6040516103db9190612e93565b60405180910390f35b60007f80ac58cd000000000000000000000000000000000000000000000000000000007bffffffffffffffffffffffffffffffffffffffffffffffffffffffff1916827bffffffffffffffffffffffffffffffffffffffffffffffffffffffff191614806104af57507f5b5e139f000000000000000000000000000000000000000000000000000000007bffffffffffffffffffffffffffffffffffffffffffffffffffffffff1916827bffffffffffffffffffffffffffffffffffffffffffffffffffffffff1916145b806104bf57506104be82611328565b5b9050919050565b6060600080546104d59061341a565b80601f01602080910402602001604051908101604052809291908181526020018280546105019061341a565b801561054e5780601f106105235761010080835404028352916020019161054e565b820191906000526020600020905b81548152906001019060200180831161053157829003601f168201915b5050505050905090565b600061056382611392565b6105a2576040517f08c379a0000000000000000000000000000000000000000000000000000000008152600401610599906130be565b60405180910390fd5b6004600083815260200190815260200160002060009054906101000a900473ffffffffffffffffffffffffffffffffffffffff169050919050565b60006105e960076113fe565b905090565b60006105f982610939565b90508073ffffffffffffffffffffffffffffffffffffffff168373ffffffffffffffffffffffffffffffffffffffff16141561066a576040517f08c379a0000000000000000000000000000000000000000000000000000000008152600401610661906130fe565b60405180910390fd5b8073ffffffffffffffffffffffffffffffffffffffff1661068961140c565b73ffffffffffffffffffffffffffffffffffffffff1614806106b857506106b7816106b261140c565b6111fb565b5b6106f7576040517f08c379a00000000000000000000000000000000000000000000000000000000081526004016106ee90612ffe565b60405180910390fd5b6107018383611414565b505050565b61071761071161140c565b826114cd565b610756576040517f08c379a000000000000000000000000000000000000000000000000000000000815260040161074d9061313e565b60405180910390fd5b6107618383836115ab565b505050565b6060600061079a61077684611812565b6040516020016107869190612dbf565b6040516020818303038152906040526119bf565b90506107db6040518060400160405280600d81526020017f72616e64202d20736565643a2000000000000000000000000000000000000000815250826119f2565b600a80549050816107ec91906134c6565b905061082d6040518060400160405280601381526020017f72616e64202d20666972737420776f72643a2000000000000000000000000000815250826119f2565b600a8181548110610867577f4e487b7100000000000000000000000000000000000000000000000000000000600052603260045260246000fd5b90600052602060002001805461087c9061341a565b80601f01602080910402602001604051908101604052809291908181526020018280546108a89061341a565b80156108f55780601f106108ca576101008083540402835291602001916108f5565b820191906000526020600020905b8154815290600101906020018083116108d857829003601f168201915b5050505050915050919050565b61091d83838360405180602001604052806000815250610c69565b505050565b6000600860009054906101000a900460ff16905090565b6000806002600084815260200190815260200160002060009054906101000a900473ffffffffffffffffffffffffffffffffffffffff169050600073ffffffffffffffffffffffffffffffffffffffff168173ffffffffffffffffffffffffffffffffffffffff1614156109e2576040517f08c379a00000000000000000000000000000000000000000000000000000000081526004016109d99061303e565b60405180910390fd5b80915050919050565b60008073ffffffffffffffffffffffffffffffffffffffff168273ffffffffffffffffffffffffffffffffffffffff161415610a5c576040517f08c379a0000000000000000000000000000000000000000000000000000000008152600401610a539061301e565b60405180910390fd5b600360008373ffffffffffffffffffffffffffffffffffffffff1673ffffffffffffffffffffffffffffffffffffffff168152602001908152602001600020549050919050565b606060018054610ab29061341a565b80601f0160208091040260200160405190810160405280929190818152602001828054610ade9061341a565b8015610b2b5780601f10610b0057610100808354040283529160200191610b2b565b820191906000526020600020905b815481529060010190602001808311610b0e57829003601f168201915b5050505050905090565b610b47610b4061140c565b8383611a8e565b5050565b60606000610b7f610b5b84611812565b604051602001610b6b9190612d58565b6040516020818303038152906040526119bf565b9050600b8054905081610b9291906134c6565b9050600b8181548110610bce577f4e487b7100000000000000000000000000000000000000000000000000000000600052603260045260246000fd5b906000526020600020018054610be39061341a565b80601f0160208091040260200160405190810160405280929190818152602001828054610c0f9061341a565b8015610c5c5780601f10610c3157610100808354040283529160200191610c5c565b820191906000526020600020905b815481529060010190602001808311610c3f57829003601f168201915b5050505050915050919050565b610c7a610c7461140c565b836114cd565b610cb9576040517f08c379a0000000000000000000000000000000000000000000000000000000008152600401610cb09061313e565b60405180910390fd5b610cc584848484611bfb565b50505050565b60606000610cff610cdb84611812565b604051602001610ceb9190612d36565b6040516020818303038152906040526119bf565b9050600c8054905081610d1291906134c6565b9050600c8181548110610d4e577f4e487b7100000000000000000000000000000000000000000000000000000000600052603260045260246000fd5b906000526020600020018054610d639061341a565b80601f0160208091040260200160405190810160405280929190818152602001828054610d8f9061341a565b8015610ddc5780601f10610db157610100808354040283529160200191610ddc565b820191906000526020600020905b815481529060010190602001808311610dbf57829003601f168201915b5050505050915050919050565b6060610df482611392565b610e33576040517f08c379a0000000000000000000000000000000000000000000000000000000008152600401610e2a9061309e565b60405180910390fd5b6000600660008481526020019081526020016000208054610e539061341a565b80601f0160208091040260200160405190810160405280929190818152602001828054610e7f9061341a565b8015610ecc5780601f10610ea157610100808354040283529160200191610ecc565b820191906000526020600020905b815481529060010190602001808311610eaf57829003601f168201915b505050505090506000610edd611c57565b9050600081511415610ef3578192505050610f36565b600082511115610f28578082604051602001610f10929190612cb2565b60405160208183030381529060405292505050610f36565b610f3184611c6e565b925050505b919050565b6000610f4760076113fe565b9050600860009054906101000a900460ff1660ff168110610f9d576040517f08c379a0000000000000000000000000000000000000000000000000000000008152600401610f949061311e565b60405180910390fd5b6000610fa882610766565b90506000610fb583610b4b565b90506000610fc284610ccb565b90506000838383604051602001610fdb93929190612cd6565b60405160208183030381529060405290506000600982604051602001611002929190612d07565b60405160208183030381529060405290506110516040518060400160405280601581526020017f0a2d2d2d2d2d205356472064617461202d2d2d2d2d000000000000000000000081525061128f565b61105a8161128f565b6110986040518060400160405280601581526020017f2d2d2d2d2d2d2d2d2d2d2d2d2d2d2d2d2d2d2d2d0a000000000000000000000081525061128f565b60006110cc836110a784611d15565b6040516020016110b8929190612d7a565b604051602081830303815290604052611d15565b90506000816040516020016110e19190612de1565b60405160208183030381529060405290506111306040518060400160405280601581526020017f0a2d2d2d2d2d20546f6b656e20555249202d2d2d2d000000000000000000000081525061128f565b6111398161128f565b6111776040518060400160405280601581526020017f2d2d2d2d2d2d2d2d2d2d2d2d2d2d2d2d2d2d2d2d0a000000000000000000000081525061128f565b6111813389611ed3565b61118b8882611ef1565b6111ae604051806060016040528060258152602001613c82602591398933611f65565b6111b86007612004565b7febb98688741ffa4c7589bf325de30cf7becb63de567842e1ccdb6cb949fdc82c33896040516111e9929190612e6a565b60405180910390a15050505050505050565b6000600560008473ffffffffffffffffffffffffffffffffffffffff1673ffffffffffffffffffffffffffffffffffffffff16815260200190815260200160002060008373ffffffffffffffffffffffffffffffffffffffff1673ffffffffffffffffffffffffffffffffffffffff16815260200190815260200160002060009054906101000a900460ff16905092915050565b611325816040516024016112a39190612eae565b6040516020818303038152906040527f41304fac000000000000000000000000000000000000000000000000000000007bffffffffffffffffffffffffffffffffffffffffffffffffffffffff19166020820180517bffffffffffffffffffffffffffffffffffffffffffffffffffffffff838183161783525050505061201a565b50565b60007f01ffc9a7000000000000000000000000000000000000000000000000000000007bffffffffffffffffffffffffffffffffffffffffffffffffffffffff1916827bffffffffffffffffffffffffffffffffffffffffffffffffffffffff1916149050919050565b60008073ffffffffffffffffffffffffffffffffffffffff166002600084815260200190815260200160002060009054906101000a900473ffffffffffffffffffffffffffffffffffffffff1673ffffffffffffffffffffffffffffffffffffffff1614159050919050565b600081600001549050919050565b600033905090565b816004600083815260200190815260200160002060006101000a81548173ffffffffffffffffffffffffffffffffffffffff021916908373ffffffffffffffffffffffffffffffffffffffff160217905550808273ffffffffffffffffffffffffffffffffffffffff1661148783610939565b73ffffffffffffffffffffffffffffffffffffffff167f8c5be1e5ebec7d5bd14f71427d1e84f3dd0314c0f7b2291e5b200ac8c7c3b92560405160405180910390a45050565b60006114d882611392565b611517576040517f08c379a000000000000000000000000000000000000000000000000000000000815260040161150e90612fde565b60405180910390fd5b600061152283610939565b90508073ffffffffffffffffffffffffffffffffffffffff168473ffffffffffffffffffffffffffffffffffffffff161480611564575061156381856111fb565b5b806115a257508373ffffffffffffffffffffffffffffffffffffffff1661158a84610558565b73ffffffffffffffffffffffffffffffffffffffff16145b91505092915050565b8273ffffffffffffffffffffffffffffffffffffffff166115cb82610939565b73ffffffffffffffffffffffffffffffffffffffff1614611621576040517f08c379a000000000000000000000000000000000000000000000000000000000815260040161161890612f5e565b60405180910390fd5b600073ffffffffffffffffffffffffffffffffffffffff168273ffffffffffffffffffffffffffffffffffffffff161415611691576040517f08c379a000000000000000000000000000000000000000000000000000000000815260040161168890612f9e565b60405180910390fd5b61169c838383612043565b6116a7600082611414565b6001600360008573ffffffffffffffffffffffffffffffffffffffff1673ffffffffffffffffffffffffffffffffffffffff16815260200190815260200160002060008282546116f79190613323565b925050819055506001600360008473ffffffffffffffffffffffffffffffffffffffff1673ffffffffffffffffffffffffffffffffffffffff168152602001908152602001600020600082825461174e9190613242565b92505081905550816002600083815260200190815260200160002060006101000a81548173ffffffffffffffffffffffffffffffffffffffff021916908373ffffffffffffffffffffffffffffffffffffffff160217905550808273ffffffffffffffffffffffffffffffffffffffff168473ffffffffffffffffffffffffffffffffffffffff167fddf252ad1be2c89b69c2b068fc378daa952ba7f163c4a11628f55a4df523b3ef60405160405180910390a461180d838383612048565b505050565b6060600082141561185a576040518060400160405280600181526020017f300000000000000000000000000000000000000000000000000000000000000081525090506119ba565b600082905060005b6000821461188c5780806118759061347d565b915050600a826118859190613298565b9150611862565b60008167ffffffffffffffff8111156118ce577f4e487b7100000000000000000000000000000000000000000000000000000000600052604160045260246000fd5b6040519080825280601f01601f1916602001820160405280156119005781602001600182028036833780820191505090505b5090505b600085146119b3576001826119199190613323565b9150600a8561192891906134c6565b60306119349190613242565b60f81b818381518110611970577f4e487b7100000000000000000000000000000000000000000000000000000000600052603260045260246000fd5b60200101907effffffffffffffffffffffffffffffffffffffffffffffffffffffffffffff1916908160001a905350600a856119ac9190613298565b9450611904565b8093505050505b919050565b6000816040516020016119d29190612c9b565b6040516020818303038152906040528051906020012060001c9050919050565b611a8a8282604051602401611a08929190612ed0565b6040516020818303038152906040527f9710a9d0000000000000000000000000000000000000000000000000000000007bffffffffffffffffffffffffffffffffffffffffffffffffffffffff19166020820180517bffffffffffffffffffffffffffffffffffffffffffffffffffffffff838183161783525050505061201a565b5050565b8173ffffffffffffffffffffffffffffffffffffffff168373ffffffffffffffffffffffffffffffffffffffff161415611afd576040517f08c379a0000000000000000000000000000000000000000000000000000000008152600401611af490612fbe565b60405180910390fd5b80600560008573ffffffffffffffffffffffffffffffffffffffff1673ffffffffffffffffffffffffffffffffffffffff16815260200190815260200160002060008473ffffffffffffffffffffffffffffffffffffffff1673ffffffffffffffffffffffffffffffffffffffff16815260200190815260200160002060006101000a81548160ff0219169083151502179055508173ffffffffffffffffffffffffffffffffffffffff168373ffffffffffffffffffffffffffffffffffffffff167f17307eab39ab6107e8899845ad3d59bd9653f200f220920489ca2b5937696c3183604051611bee9190612e93565b60405180910390a3505050565b611c068484846115ab565b611c128484848461204d565b611c51576040517f08c379a0000000000000000000000000000000000000000000000000000000008152600401611c4890612f3e565b60405180910390fd5b50505050565b606060405180602001604052806000815250905090565b6060611c7982611392565b611cb8576040517f08c379a0000000000000000000000000000000000000000000000000000000008152600401611caf906130de565b60405180910390fd5b6000611cc2611c57565b90506000815111611ce25760405180602001604052806000815250611d0d565b80611cec84611812565b604051602001611cfd929190612cb2565b6040516020818303038152906040525b915050919050565b60606000825190506000811415611d3e5760405180602001604052806000815250915050611ece565b60006003600283611d4f9190613242565b611d599190613298565b6004611d6591906132c9565b90506000602082611d769190613242565b67ffffffffffffffff811115611db5577f4e487b7100000000000000000000000000000000000000000000000000000000600052604160045260246000fd5b6040519080825280601f01601f191660200182016040528015611de75781602001600182028036833780820191505090505b5090506000604051806060016040528060408152602001613ca7604091399050600181016020830160005b86811015611e8b5760038101905062ffffff818a015116603f8160121c168401518060081b905060ff603f83600c1c1686015116810190508060081b905060ff603f8360061c1686015116810190508060081b905060ff603f831686015116810190508060e01b90508084526004840193505050611e12565b506003860660018114611ea55760028114611eb557611ec0565b613d3d60f01b6002830352611ec0565b603d60f81b60018303525b508484525050819450505050505b919050565b611eed8282604051806020016040528060008152506121e4565b5050565b611efa82611392565b611f39576040517f08c379a0000000000000000000000000000000000000000000000000000000008152600401611f309061305e565b60405180910390fd5b80600660008481526020019081526020016000209080519060200190611f6092919061243c565b505050565b611fff838383604051602401611f7d93929190612f00565b6040516020818303038152906040527fe3849f79000000000000000000000000000000000000000000000000000000007bffffffffffffffffffffffffffffffffffffffffffffffffffffffff19166020820180517bffffffffffffffffffffffffffffffffffffffffffffffffffffffff838183161783525050505061201a565b505050565b6001816000016000828254019250508190555050565b60008151905060006a636f6e736f6c652e6c6f679050602083016000808483855afa5050505050565b505050565b505050565b600061206e8473ffffffffffffffffffffffffffffffffffffffff1661223f565b156121d7578373ffffffffffffffffffffffffffffffffffffffff1663150b7a0261209761140c565b8786866040518563ffffffff1660e01b81526004016120b99493929190612e1e565b602060405180830381600087803b1580156120d357600080fd5b505af192505050801561210457506040513d601f19601f820116820180604052508101906121019190612780565b60015b612187573d8060008114612134576040519150601f19603f3d011682016040523d82523d6000602084013e612139565b606091505b5060008151141561217f576040517f08c379a000000000000000000000000000000000000000000000000000000000815260040161217690612f3e565b60405180910390fd5b805181602001fd5b63150b7a0260e01b7bffffffffffffffffffffffffffffffffffffffffffffffffffffffff1916817bffffffffffffffffffffffffffffffffffffffffffffffffffffffff1916149150506121dc565b600190505b949350505050565b6121ee8383612262565b6121fb600084848461204d565b61223a576040517f08c379a000000000000000000000000000000000000000000000000000000000815260040161223190612f3e565b60405180910390fd5b505050565b6000808273ffffffffffffffffffffffffffffffffffffffff163b119050919050565b600073ffffffffffffffffffffffffffffffffffffffff168273ffffffffffffffffffffffffffffffffffffffff1614156122d2576040517f08c379a00000000000000000000000000000000000000000000000000000000081526004016122c99061307e565b60405180910390fd5b6122db81611392565b1561231b576040517f08c379a000000000000000000000000000000000000000000000000000000000815260040161231290612f7e565b60405180910390fd5b61232760008383612043565b6001600360008473ffffffffffffffffffffffffffffffffffffffff1673ffffffffffffffffffffffffffffffffffffffff16815260200190815260200160002060008282546123779190613242565b92505081905550816002600083815260200190815260200160002060006101000a81548173ffffffffffffffffffffffffffffffffffffffff021916908373ffffffffffffffffffffffffffffffffffffffff160217905550808273ffffffffffffffffffffffffffffffffffffffff16600073ffffffffffffffffffffffffffffffffffffffff167fddf252ad1be2c89b69c2b068fc378daa952ba7f163c4a11628f55a4df523b3ef60405160405180910390a461243860008383612048565b5050565b8280546124489061341a565b90600052602060002090601f01602090048101928261246a57600085556124b1565b82601f1061248357805160ff19168380011785556124b1565b828001600101855582156124b1579182015b828111156124b0578251825591602001919060010190612495565b5b5090506124be91906124c2565b5090565b5b808211156124db5760008160009055506001016124c3565b5090565b60006124f26124ed846131b9565b613194565b90508281526020810184848401111561250a57600080fd5b6125158482856133d8565b509392505050565b60008135905061252c81613c25565b92915050565b60008135905061254181613c3c565b92915050565b60008135905061255681613c53565b92915050565b60008151905061256b81613c53565b92915050565b600082601f83011261258257600080fd5b81356125928482602086016124df565b91505092915050565b6000813590506125aa81613c6a565b92915050565b6000602082840312156125c257600080fd5b60006125d08482850161251d565b91505092915050565b600080604083850312156125ec57600080fd5b60006125fa8582860161251d565b925050602061260b8582860161251d565b9150509250929050565b60008060006060848603121561262a57600080fd5b60006126388682870161251d565b93505060206126498682870161251d565b925050604061265a8682870161259b565b9150509250925092565b6000806000806080858703121561267a57600080fd5b60006126888782880161251d565b94505060206126998782880161251d565b93505060406126aa8782880161259b565b925050606085013567ffffffffffffffff8111156126c757600080fd5b6126d387828801612571565b91505092959194509250565b600080604083850312156126f257600080fd5b60006127008582860161251d565b925050602061271185828601612532565b9150509250929050565b6000806040838503121561272e57600080fd5b600061273c8582860161251d565b925050602061274d8582860161259b565b9150509250929050565b60006020828403121561276957600080fd5b600061277784828501612547565b91505092915050565b60006020828403121561279257600080fd5b60006127a08482850161255c565b91505092915050565b6000602082840312156127bb57600080fd5b60006127c98482850161259b565b91505092915050565b6127db81613357565b82525050565b6127ea81613369565b82525050565b60006127fb826131ff565b6128058185613215565b93506128158185602086016133e7565b61281e816135b3565b840191505092915050565b60006128348261320a565b61283e8185613226565b935061284e8185602086016133e7565b612857816135b3565b840191505092915050565b600061286d8261320a565b6128778185613237565b93506128878185602086016133e7565b80840191505092915050565b600081546128a08161341a565b6128aa8186613237565b945060018216600081146128c557600181146128d657612909565b60ff19831686528186019350612909565b6128df856131ea565b60005b83811015612901578154818901526001820191506020810190506128e2565b838801955050505b50505092915050565b600061291f603283613226565b915061292a826135c4565b604082019050919050565b6000612942602583613226565b915061294d82613613565b604082019050919050565b6000612965601c83613226565b915061297082613662565b602082019050919050565b6000612988600a83613237565b91506129938261368b565b600a82019050919050565b60006129ab602483613226565b91506129b6826136b4565b604082019050919050565b60006129ce601983613226565b91506129d982613703565b602082019050919050565b60006129f1606383613237565b91506129fc8261372c565b606382019050919050565b6000612a14600b83613237565b9150612a1f826137c7565b600b82019050919050565b6000612a37602c83613226565b9150612a42826137f0565b604082019050919050565b6000612a5a600d83613237565b9150612a658261383f565b600d82019050919050565b6000612a7d603883613226565b9150612a8882613868565b604082019050919050565b6000612aa0602a83613226565b9150612aab826138b7565b604082019050919050565b6000612ac3602983613226565b9150612ace82613906565b604082019050919050565b6000612ae6602e83613226565b9150612af182613955565b604082019050919050565b6000612b09600283613237565b9150612b14826139a4565b600282019050919050565b6000612b2c602083613226565b9150612b37826139cd565b602082019050919050565b6000612b4f603183613226565b9150612b5a826139f6565b604082019050919050565b6000612b72602c83613226565b9150612b7d82613a45565b604082019050919050565b6000612b95602f83613226565b9150612ba082613a94565b604082019050919050565b6000612bb8600a83613237565b9150612bc382613ae3565b600a82019050919050565b6000612bdb602183613226565b9150612be682613b0c565b604082019050919050565b6000612bfe600d83613226565b9150612c0982613b5b565b602082019050919050565b6000612c21600a83613237565b9150612c2c82613b84565b600a82019050919050565b6000612c44601d83613237565b9150612c4f82613bad565b601d82019050919050565b6000612c67603183613226565b9150612c7282613bd6565b604082019050919050565b612c86816133c1565b82525050565b612c95816133cb565b82525050565b6000612ca78284612862565b915081905092915050565b6000612cbe8285612862565b9150612cca8284612862565b91508190509392505050565b6000612ce28286612862565b9150612cee8285612862565b9150612cfa8284612862565b9150819050949350505050565b6000612d138285612893565b9150612d1f8284612862565b9150612d2a82612a4d565b91508190509392505050565b6000612d418261297b565b9150612d4d8284612862565b915081905092915050565b6000612d6382612a07565b9150612d6f8284612862565b915081905092915050565b6000612d8582612bab565b9150612d918285612862565b9150612d9c826129e4565b9150612da88284612862565b9150612db382612afc565b91508190509392505050565b6000612dca82612c14565b9150612dd68284612862565b915081905092915050565b6000612dec82612c37565b9150612df88284612862565b915081905092915050565b6000602082019050612e1860008301846127d2565b92915050565b6000608082019050612e3360008301876127d2565b612e4060208301866127d2565b612e4d6040830185612c7d565b8181036060830152612e5f81846127f0565b905095945050505050565b6000604082019050612e7f60008301856127d2565b612e8c6020830184612c7d565b9392505050565b6000602082019050612ea860008301846127e1565b92915050565b60006020820190508181036000830152612ec88184612829565b905092915050565b60006040820190508181036000830152612eea8185612829565b9050612ef96020830184612c7d565b9392505050565b60006060820190508181036000830152612f1a8186612829565b9050612f296020830185612c7d565b612f3660408301846127d2565b949350505050565b60006020820190508181036000830152612f5781612912565b9050919050565b60006020820190508181036000830152612f7781612935565b9050919050565b60006020820190508181036000830152612f9781612958565b9050919050565b60006020820190508181036000830152612fb78161299e565b9050919050565b60006020820190508181036000830152612fd7816129c1565b9050919050565b60006020820190508181036000830152612ff781612a2a565b9050919050565b6000602082019050818103600083015261301781612a70565b9050919050565b6000602082019050818103600083015261303781612a93565b9050919050565b6000602082019050818103600083015261305781612ab6565b9050919050565b6000602082019050818103600083015261307781612ad9565b9050919050565b6000602082019050818103600083015261309781612b1f565b9050919050565b600060208201905081810360008301526130b781612b42565b9050919050565b600060208201905081810360008301526130d781612b65565b9050919050565b600060208201905081810360008301526130f781612b88565b9050919050565b6000602082019050818103600083015261311781612bce565b9050919050565b6000602082019050818103600083015261313781612bf1565b9050919050565b6000602082019050818103600083015261315781612c5a565b9050919050565b60006020820190506131736000830184612c7d565b92915050565b600060208201905061318e6000830184612c8c565b92915050565b600061319e6131af565b90506131aa828261344c565b919050565b6000604051905090565b600067ffffffffffffffff8211156131d4576131d3613584565b5b6131dd826135b3565b9050602081019050919050565b60008190508160005260206000209050919050565b600081519050919050565b600081519050919050565b600082825260208201905092915050565b600082825260208201905092915050565b600081905092915050565b600061324d826133c1565b9150613258836133c1565b9250827fffffffffffffffffffffffffffffffffffffffffffffffffffffffffffffffff0382111561328d5761328c6134f7565b5b828201905092915050565b60006132a3826133c1565b91506132ae836133c1565b9250826132be576132bd613526565b5b828204905092915050565b60006132d4826133c1565b91506132df836133c1565b9250817fffffffffffffffffffffffffffffffffffffffffffffffffffffffffffffffff0483118215151615613318576133176134f7565b5b828202905092915050565b600061332e826133c1565b9150613339836133c1565b92508282101561334c5761334b6134f7565b5b828203905092915050565b6000613362826133a1565b9050919050565b60008115159050919050565b60007fffffffff0000000000000000000000000000000000000000000000000000000082169050919050565b600073ffffffffffffffffffffffffffffffffffffffff82169050919050565b6000819050919050565b600060ff82169050919050565b82818337600083830152505050565b60005b838110156134055780820151818401526020810190506133ea565b83811115613414576000848401525b50505050565b6000600282049050600182168061343257607f821691505b6020821081141561344657613445613555565b5b50919050565b613455826135b3565b810181811067ffffffffffffffff8211171561347457613473613584565b5b80604052505050565b6000613488826133c1565b91507fffffffffffffffffffffffffffffffffffffffffffffffffffffffffffffffff8214156134bb576134ba6134f7565b5b600182019050919050565b60006134d1826133c1565b91506134dc836133c1565b9250826134ec576134eb613526565b5b828206905092915050565b7f4e487b7100000000000000000000000000000000000000000000000000000000600052601160045260246000fd5b7f4e487b7100000000000000000000000000000000000000000000000000000000600052601260045260246000fd5b7f4e487b7100000000000000000000000000000000000000000000000000000000600052602260045260246000fd5b7f4e487b7100000000000000000000000000000000000000000000000000000000600052604160045260246000fd5b6000601f19601f8301169050919050565b7f4552433732313a207472616e7366657220746f206e6f6e20455243373231526560008201527f63656976657220696d706c656d656e7465720000000000000000000000000000602082015250565b7f4552433732313a207472616e736665722066726f6d20696e636f72726563742060008201527f6f776e6572000000000000000000000000000000000000000000000000000000602082015250565b7f4552433732313a20746f6b656e20616c7265616479206d696e74656400000000600082015250565b7f54484952445f574f524400000000000000000000000000000000000000000000600082015250565b7f4552433732313a207472616e7366657220746f20746865207a65726f2061646460008201527f7265737300000000000000000000000000000000000000000000000000000000602082015250565b7f4552433732313a20617070726f766520746f2063616c6c657200000000000000600082015250565b7f222c20226465736372697074696f6e223a20224120686967686c79206163636c60008201527f61696d656420636f6c6c656374696f6e206f6620737175617265732e222c202260208201527f696d616765223a2022646174613a696d6167652f7376672b786d6c3b6261736560408201527f36342c0000000000000000000000000000000000000000000000000000000000606082015250565b7f5345434f4e445f574f5244000000000000000000000000000000000000000000600082015250565b7f4552433732313a206f70657261746f7220717565727920666f72206e6f6e657860008201527f697374656e7420746f6b656e0000000000000000000000000000000000000000602082015250565b7f3c2f746578743e3c2f7376673e00000000000000000000000000000000000000600082015250565b7f4552433732313a20617070726f76652063616c6c6572206973206e6f74206f7760008201527f6e6572206e6f7220617070726f76656420666f7220616c6c0000000000000000602082015250565b7f4552433732313a2062616c616e636520717565727920666f7220746865207a6560008201527f726f206164647265737300000000000000000000000000000000000000000000602082015250565b7f4552433732313a206f776e657220717565727920666f72206e6f6e657869737460008201527f656e7420746f6b656e0000000000000000000000000000000000000000000000602082015250565b7f45524337323155524953746f726167653a2055524920736574206f66206e6f6e60008201527f6578697374656e7420746f6b656e000000000000000000000000000000000000602082015250565b7f227d000000000000000000000000000000000000000000000000000000000000600082015250565b7f4552433732313a206d696e7420746f20746865207a65726f2061646472657373600082015250565b7f45524337323155524953746f726167653a2055524920717565727920666f722060008201527f6e6f6e6578697374656e7420746f6b656e000000000000000000000000000000602082015250565b7f4552433732313a20617070726f76656420717565727920666f72206e6f6e657860008201527f697374656e7420746f6b656e0000000000000000000000000000000000000000602082015250565b7f4552433732314d657461646174613a2055524920717565727920666f72206e6f60008201527f6e6578697374656e7420746f6b656e0000000000000000000000000000000000602082015250565b7f7b226e616d65223a202200000000000000000000000000000000000000000000600082015250565b7f4552433732313a20617070726f76616c20746f2063757272656e74206f776e6560008201527f7200000000000000000000000000000000000000000000000000000000000000602082015250565b7f6d696e74206d6178206f76657200000000000000000000000000000000000000600082015250565b7f46495253545f574f524400000000000000000000000000000000000000000000600082015250565b7f646174613a6170706c69636174696f6e2f6a736f6e3b6261736536342c000000600082015250565b7f4552433732313a207472616e736665722063616c6c6572206973206e6f74206f60008201527f776e6572206e6f7220617070726f766564000000000000000000000000000000602082015250565b613c2e81613357565b8114613c3957600080fd5b50565b613c4581613369565b8114613c5057600080fd5b50565b613c5c81613375565b8114613c6757600080fd5b50565b613c73816133c1565b8114613c7e57600080fd5b5056fe416e204e465420772f20494420257320686173206265656e206d696e74656420746f2025734142434445464748494a4b4c4d4e4f505152535455565758595a6162636465666768696a6b6c6d6e6f707172737475767778797a303132333435363738392b2fa264697066735822122083f48d76dc2e359c83b1a629c4b4208f49a5b75774c7016a46884b83b3fe588864736f6c634300080400333c73766720786d6c6e733d27687474703a2f2f7777772e77332e6f72672f323030302f73766727207072657365727665417370656374526174696f3d27784d696e594d696e206d656574272076696577426f783d273020302033353020333530273e3c7374796c653e2e62617365207b2066696c6c3a2077686974653b20666f6e742d66616d696c793a2073657269663b20666f6e742d73697a653a20323470783b207d3c2f7374796c653e3c726563742077696474683d273130302527206865696768743d2731303025272066696c6c3d27626c61636b27202f3e3c7465787420783d273530252720793d273530252720636c6173733d27626173652720646f6d696e616e742d626173656c696e653d276d6964646c652720746578742d616e63686f723d276d6964646c65273e",
  "linkReferences": {},
  "deployedLinkReferences": {}
}